{
  "_format": "hh-sol-artifact-1",
  "contractName": "AlfaAccess",
  "sourceName": "contracts/myNFT.sol",
  "abi": [
    {
      "inputs": [
        {
          "internalType": "address",
          "name": "artist",
          "type": "address"
        },
        {
          "internalType": "uint256",
          "name": "feeAmount",
          "type": "uint256"
        }
      ],
      "stateMutability": "nonpayable",
      "type": "constructor"
    },
    {
      "anonymous": false,
      "inputs": [
        {
          "indexed": true,
          "internalType": "address",
          "name": "owner",
          "type": "address"
        },
        {
          "indexed": true,
          "internalType": "address",
          "name": "approved",
          "type": "address"
        },
        {
          "indexed": true,
          "internalType": "uint256",
          "name": "tokenId",
          "type": "uint256"
        }
      ],
      "name": "Approval",
      "type": "event"
    },
    {
      "anonymous": false,
      "inputs": [
        {
          "indexed": true,
          "internalType": "address",
          "name": "owner",
          "type": "address"
        },
        {
          "indexed": true,
          "internalType": "address",
          "name": "operator",
          "type": "address"
        },
        {
          "indexed": false,
          "internalType": "bool",
          "name": "approved",
          "type": "bool"
        }
      ],
      "name": "ApprovalForAll",
      "type": "event"
    },
    {
      "anonymous": false,
      "inputs": [
        {
          "indexed": false,
          "internalType": "address",
          "name": "_seller",
          "type": "address"
        },
        {
          "indexed": false,
          "internalType": "address",
          "name": "_buyer",
          "type": "address"
        },
        {
          "indexed": false,
          "internalType": "uint256",
          "name": "_price",
          "type": "uint256"
        }
      ],
      "name": "NftBought",
      "type": "event"
    },
    {
      "anonymous": false,
      "inputs": [
        {
          "indexed": true,
          "internalType": "address",
          "name": "from",
          "type": "address"
        },
        {
          "indexed": true,
          "internalType": "address",
          "name": "to",
          "type": "address"
        },
        {
          "indexed": true,
          "internalType": "uint256",
          "name": "tokenId",
          "type": "uint256"
        }
      ],
      "name": "Transfer",
      "type": "event"
    },
    {
      "inputs": [
        {
          "internalType": "uint256",
          "name": "_tokenId",
          "type": "uint256"
        },
        {
          "internalType": "uint256",
          "name": "_price",
          "type": "uint256"
        }
      ],
      "name": "allowBuy",
      "outputs": [],
      "stateMutability": "nonpayable",
      "type": "function"
    },
    {
      "inputs": [
        {
          "internalType": "address",
          "name": "to",
          "type": "address"
        },
        {
          "internalType": "uint256",
          "name": "tokenId",
          "type": "uint256"
        }
      ],
      "name": "approve",
      "outputs": [],
      "stateMutability": "nonpayable",
      "type": "function"
    },
    {
      "inputs": [
        {
          "internalType": "address",
          "name": "owner",
          "type": "address"
        }
      ],
      "name": "balanceOf",
      "outputs": [
        {
          "internalType": "uint256",
          "name": "",
          "type": "uint256"
        }
      ],
      "stateMutability": "view",
      "type": "function"
    },
    {
      "inputs": [
        {
          "internalType": "uint256",
          "name": "_tokenId",
          "type": "uint256"
        }
      ],
      "name": "buy",
      "outputs": [],
      "stateMutability": "payable",
      "type": "function"
    },
    {
      "inputs": [],
      "name": "count",
      "outputs": [
        {
          "internalType": "uint256",
          "name": "",
          "type": "uint256"
        }
      ],
      "stateMutability": "view",
      "type": "function"
    },
    {
      "inputs": [],
      "name": "createToken",
      "outputs": [
        {
          "internalType": "uint256",
          "name": "",
          "type": "uint256"
        }
      ],
      "stateMutability": "nonpayable",
      "type": "function"
    },
    {
      "inputs": [
        {
          "internalType": "uint256",
          "name": "_tokenId",
          "type": "uint256"
        }
      ],
      "name": "disallowBuy",
      "outputs": [],
      "stateMutability": "nonpayable",
      "type": "function"
    },
    {
      "inputs": [
        {
          "internalType": "uint256",
          "name": "",
          "type": "uint256"
        }
      ],
      "name": "excludeList",
      "outputs": [
        {
          "internalType": "bool",
          "name": "",
          "type": "bool"
        }
      ],
      "stateMutability": "view",
      "type": "function"
    },
    {
      "inputs": [
        {
          "internalType": "uint256",
          "name": "tokenId",
          "type": "uint256"
        }
      ],
      "name": "getApproved",
      "outputs": [
        {
          "internalType": "address",
          "name": "",
          "type": "address"
        }
      ],
      "stateMutability": "view",
      "type": "function"
    },
    {
      "inputs": [
        {
          "internalType": "uint16",
          "name": "_tokenId",
          "type": "uint16"
        }
      ],
      "name": "getHash",
      "outputs": [
        {
          "internalType": "string",
          "name": "_passcode",
          "type": "string"
        }
      ],
      "stateMutability": "view",
      "type": "function"
    },
    {
      "inputs": [],
      "name": "getOwner",
      "outputs": [
        {
          "internalType": "address",
          "name": "_owner",
          "type": "address"
        }
      ],
      "stateMutability": "view",
      "type": "function"
    },
    {
      "inputs": [
        {
          "internalType": "uint256",
          "name": "_tokenId",
          "type": "uint256"
        }
      ],
      "name": "getPrice",
      "outputs": [
        {
          "internalType": "uint256",
          "name": "_price",
          "type": "uint256"
        }
      ],
      "stateMutability": "view",
      "type": "function"
    },
    {
      "inputs": [
        {
          "internalType": "uint16",
          "name": "_tokenId",
          "type": "uint16"
        }
      ],
      "name": "getStats",
      "outputs": [
        {
          "internalType": "address",
          "name": "_owner",
          "type": "address"
        },
        {
          "internalType": "uint256",
          "name": "_price",
          "type": "uint256"
        },
        {
          "internalType": "string",
          "name": "_passcode",
          "type": "string"
        }
      ],
      "stateMutability": "view",
      "type": "function"
    },
    {
      "inputs": [
        {
          "internalType": "address",
          "name": "_user",
          "type": "address"
        }
      ],
      "name": "getTokenOwnedByUser",
      "outputs": [
        {
          "internalType": "uint256",
          "name": "_tokenId",
          "type": "uint256"
        }
      ],
      "stateMutability": "view",
      "type": "function"
    },
    {
      "inputs": [
        {
          "internalType": "address",
          "name": "owner",
          "type": "address"
        },
        {
          "internalType": "address",
          "name": "operator",
          "type": "address"
        }
      ],
      "name": "isApprovedForAll",
      "outputs": [
        {
          "internalType": "bool",
          "name": "",
          "type": "bool"
        }
      ],
      "stateMutability": "view",
      "type": "function"
    },
    {
      "inputs": [],
      "name": "name",
      "outputs": [
        {
          "internalType": "string",
          "name": "",
          "type": "string"
        }
      ],
      "stateMutability": "view",
      "type": "function"
    },
    {
      "inputs": [
        {
          "internalType": "uint256",
          "name": "tokenId",
          "type": "uint256"
        }
      ],
      "name": "ownerOf",
      "outputs": [
        {
          "internalType": "address",
          "name": "",
          "type": "address"
        }
      ],
      "stateMutability": "view",
      "type": "function"
    },
    {
      "inputs": [
        {
          "internalType": "uint256",
          "name": "",
          "type": "uint256"
        }
      ],
      "name": "passcode",
      "outputs": [
        {
          "internalType": "string",
          "name": "",
          "type": "string"
        }
      ],
      "stateMutability": "view",
      "type": "function"
    },
    {
      "inputs": [
        {
          "internalType": "address",
          "name": "from",
          "type": "address"
        },
        {
          "internalType": "address",
          "name": "to",
          "type": "address"
        },
        {
          "internalType": "uint256",
          "name": "tokenId",
          "type": "uint256"
        }
      ],
      "name": "safeTransferFrom",
      "outputs": [],
      "stateMutability": "nonpayable",
      "type": "function"
    },
    {
      "inputs": [
        {
          "internalType": "address",
          "name": "from",
          "type": "address"
        },
        {
          "internalType": "address",
          "name": "to",
          "type": "address"
        },
        {
          "internalType": "uint256",
          "name": "tokenId",
          "type": "uint256"
        },
        {
          "internalType": "bytes",
          "name": "_data",
          "type": "bytes"
        }
      ],
      "name": "safeTransferFrom",
      "outputs": [],
      "stateMutability": "nonpayable",
      "type": "function"
    },
    {
      "inputs": [
        {
          "internalType": "address",
          "name": "operator",
          "type": "address"
        },
        {
          "internalType": "bool",
          "name": "approved",
          "type": "bool"
        }
      ],
      "name": "setApprovalForAll",
      "outputs": [],
      "stateMutability": "nonpayable",
      "type": "function"
    },
    {
      "inputs": [
        {
          "internalType": "uint16",
          "name": "_tokenId",
          "type": "uint16"
        },
        {
          "internalType": "string",
          "name": "_passcode",
          "type": "string"
        }
      ],
      "name": "setCharInHash",
      "outputs": [],
      "stateMutability": "nonpayable",
      "type": "function"
    },
    {
      "inputs": [
        {
          "internalType": "uint256",
          "name": "tokenId",
          "type": "uint256"
        },
        {
          "internalType": "bool",
          "name": "status",
          "type": "bool"
        }
      ],
      "name": "setExcluded",
      "outputs": [],
      "stateMutability": "nonpayable",
      "type": "function"
    },
    {
      "inputs": [
        {
          "internalType": "bytes4",
          "name": "interfaceId",
          "type": "bytes4"
        }
      ],
      "name": "supportsInterface",
      "outputs": [
        {
          "internalType": "bool",
          "name": "",
          "type": "bool"
        }
      ],
      "stateMutability": "view",
      "type": "function"
    },
    {
      "inputs": [],
      "name": "symbol",
      "outputs": [
        {
          "internalType": "string",
          "name": "",
          "type": "string"
        }
      ],
      "stateMutability": "view",
      "type": "function"
    },
    {
      "inputs": [
        {
          "internalType": "uint256",
          "name": "",
          "type": "uint256"
        }
      ],
      "name": "tokenIdToPrice",
      "outputs": [
        {
          "internalType": "uint256",
          "name": "",
          "type": "uint256"
        }
      ],
      "stateMutability": "view",
      "type": "function"
    },
    {
      "inputs": [
        {
          "internalType": "uint256",
          "name": "tokenId",
          "type": "uint256"
        }
      ],
      "name": "tokenURI",
      "outputs": [
        {
          "internalType": "string",
          "name": "",
          "type": "string"
        }
      ],
      "stateMutability": "view",
      "type": "function"
    },
    {
      "inputs": [
        {
          "internalType": "address",
          "name": "from",
          "type": "address"
        },
        {
          "internalType": "address",
          "name": "to",
          "type": "address"
        },
        {
          "internalType": "uint256",
          "name": "tokenId",
          "type": "uint256"
        }
      ],
      "name": "transferFrom",
      "outputs": [],
      "stateMutability": "nonpayable",
      "type": "function"
    },
    {
      "inputs": [
        {
          "internalType": "address",
          "name": "",
          "type": "address"
        }
      ],
      "name": "userToTokenCount",
      "outputs": [
        {
          "internalType": "uint256",
          "name": "",
          "type": "uint256"
        }
      ],
      "stateMutability": "view",
      "type": "function"
    },
    {
      "inputs": [],
      "name": "withdraw",
      "outputs": [],
      "stateMutability": "payable",
      "type": "function"
    }
  ],
  "bytecode": "0x60806040523480156200001157600080fd5b506040516200428938038062004289833981810160405281019062000037919062000205565b6040518060400160405280600a81526020017f416c6661416363657373000000000000000000000000000000000000000000008152506040518060400160405280600481526020017f41464143000000000000000000000000000000000000000000000000000000008152508160009080519060200190620000bb92919062000127565b508060019080519060200190620000d492919062000127565b50505081600860006101000a81548173ffffffffffffffffffffffffffffffffffffffff021916908373ffffffffffffffffffffffffffffffffffffffff1602179055508060098190555050506200031d565b828054620001359062000284565b90600052602060002090601f016020900481019282620001595760008555620001a5565b82601f106200017457805160ff1916838001178555620001a5565b82800160010185558215620001a5579182015b82811115620001a457825182559160200191906001019062000187565b5b509050620001b49190620001b8565b5090565b5b80821115620001d3576000816000905550600101620001b9565b5090565b600081519050620001e881620002e9565b92915050565b600081519050620001ff8162000303565b92915050565b600080604083850312156200021957600080fd5b60006200022985828601620001d7565b92505060206200023c85828601620001ee565b9150509250929050565b600062000253826200025a565b9050919050565b600073ffffffffffffffffffffffffffffffffffffffff82169050919050565b6000819050919050565b600060028204905060018216806200029d57607f821691505b60208210811415620002b457620002b3620002ba565b5b50919050565b7f4e487b7100000000000000000000000000000000000000000000000000000000600052602260045260246000fd5b620002f48162000246565b81146200030057600080fd5b50565b6200030e816200027a565b81146200031a57600080fd5b50565b613f5c806200032d6000396000f3fe6080604052600436106101cd5760003560e01c8063887078be116100f7578063bbb5e8d311610095578063dd9b74a711610064578063dd9b74a7146106a4578063e7572230146106e1578063e985e9c51461071e578063f4812eb91461075b576101cd565b8063bbb5e8d3146105f9578063c87b56dd14610622578063d49913121461065f578063d96a094a14610688576101cd565b806395d89b41116100d157806395d89b41146105515780639cbf9e361461057c578063a22cb465146105a7578063b88d4fde146105d0576101cd565b8063887078be146104aa578063893d20e8146104e95780638f8d9cd214610514576101cd565b80632aaf30201161016f57806359ed8a361161013e57806359ed8a36146103ca5780636352211e1461040757806370a082311461044457806375191cae14610481576101cd565b80632aaf3020146103315780633ccfd60b1461036e57806342842e0e146103785780635400d592146103a1576101cd565b8063081812fc116101ab578063081812fc14610265578063095ea7b3146102a25780630d083427146102cb57806323b872dd14610308576101cd565b806301ffc9a7146101d257806306661abd1461020f57806306fdde031461023a575b600080fd5b3480156101de57600080fd5b506101f960048036038101906101f49190612b40565b610798565b60405161020691906131dd565b60405180910390f35b34801561021b57600080fd5b5061022461087a565b60405161023191906134fa565b60405180910390f35b34801561024657600080fd5b5061024f61088b565b60405161025c91906131f8565b60405180910390f35b34801561027157600080fd5b5061028c60048036038101906102879190612c0f565b61091d565b6040516102999190613101565b60405180910390f35b3480156102ae57600080fd5b506102c960048036038101906102c49190612b04565b6109a2565b005b3480156102d757600080fd5b506102f260048036038101906102ed9190612c0f565b610aba565b6040516102ff91906131f8565b60405180910390f35b34801561031457600080fd5b5061032f600480360381019061032a91906129fe565b610b5a565b005b34801561033d57600080fd5b5061035860048036038101906103539190612999565b610bba565b60405161036591906134fa565b60405180910390f35b610376610c03565b005b34801561038457600080fd5b5061039f600480360381019061039a91906129fe565b610d8b565b005b3480156103ad57600080fd5b506103c860048036038101906103c39190612c38565b610dab565b005b3480156103d657600080fd5b506103f160048036038101906103ec9190612c0f565b610e6a565b6040516103fe91906131dd565b60405180910390f35b34801561041357600080fd5b5061042e60048036038101906104299190612c0f565b610e8a565b60405161043b9190613101565b60405180910390f35b34801561045057600080fd5b5061046b60048036038101906104669190612999565b610f3c565b60405161047891906134fa565b60405180910390f35b34801561048d57600080fd5b506104a860048036038101906104a39190612bbb565b610ff4565b005b3480156104b657600080fd5b506104d160048036038101906104cc9190612b92565b611144565b6040516104e09392919061319f565b60405180910390f35b3480156104f557600080fd5b506104fe61121e565b60405161050b9190613101565b60405180910390f35b34801561052057600080fd5b5061053b60048036038101906105369190612999565b611226565b60405161054891906134fa565b60405180910390f35b34801561055d57600080fd5b5061056661123e565b60405161057391906131f8565b60405180910390f35b34801561058857600080fd5b506105916112d0565b60405161059e91906134fa565b60405180910390f35b3480156105b357600080fd5b506105ce60048036038101906105c99190612ac8565b611363565b005b3480156105dc57600080fd5b506105f760048036038101906105f29190612a4d565b611379565b005b34801561060557600080fd5b50610620600480360381019061061b9190612c74565b6113db565b005b34801561062e57600080fd5b5061064960048036038101906106449190612c0f565b6114b0565b60405161065691906131f8565b60405180910390f35b34801561066b57600080fd5b5061068660048036038101906106819190612c0f565b611602565b005b6106a2600480360381019061069d9190612c0f565b611694565b005b3480156106b057600080fd5b506106cb60048036038101906106c69190612b92565b61190a565b6040516106d891906131f8565b60405180910390f35b3480156106ed57600080fd5b5061070860048036038101906107039190612c0f565b6119b3565b60405161071591906134fa565b60405180910390f35b34801561072a57600080fd5b50610745600480360381019061074091906129c2565b6119dd565b60405161075291906131dd565b60405180910390f35b34801561076757600080fd5b50610782600480360381019061077d9190612c0f565b611a71565b60405161078f91906134fa565b60405180910390f35b60007f80ac58cd000000000000000000000000000000000000000000000000000000007bffffffffffffffffffffffffffffffffffffffffffffffffffffffff1916827bffffffffffffffffffffffffffffffffffffffffffffffffffffffff1916148061086357507f5b5e139f000000000000000000000000000000000000000000000000000000007bffffffffffffffffffffffffffffffffffffffffffffffffffffffff1916827bffffffffffffffffffffffffffffffffffffffffffffffffffffffff1916145b80610873575061087282611a89565b5b9050919050565b60006108866007611af3565b905090565b60606000805461089a90613769565b80601f01602080910402602001604051908101604052809291908181526020018280546108c690613769565b80156109135780601f106108e857610100808354040283529160200191610913565b820191906000526020600020905b8154815290600101906020018083116108f657829003601f168201915b5050505050905090565b600061092882611b01565b610967576040517f08c379a000000000000000000000000000000000000000000000000000000000815260040161095e906133fa565b60405180910390fd5b6004600083815260200190815260200160002060009054906101000a900473ffffffffffffffffffffffffffffffffffffffff169050919050565b60006109ad82610e8a565b90508073ffffffffffffffffffffffffffffffffffffffff168373ffffffffffffffffffffffffffffffffffffffff161415610a1e576040517f08c379a0000000000000000000000000000000000000000000000000000000008152600401610a159061345a565b60405180910390fd5b8073ffffffffffffffffffffffffffffffffffffffff16610a3d611b6d565b73ffffffffffffffffffffffffffffffffffffffff161480610a6c5750610a6b81610a66611b6d565b6119dd565b5b610aab576040517f08c379a0000000000000000000000000000000000000000000000000000000008152600401610aa29061331a565b60405180910390fd5b610ab58383611b75565b505050565b600b6020528060005260406000206000915090508054610ad990613769565b80601f0160208091040260200160405190810160405280929190818152602001828054610b0590613769565b8015610b525780601f10610b2757610100808354040283529160200191610b52565b820191906000526020600020905b815481529060010190602001808311610b3557829003601f168201915b505050505081565b610b6b610b65611b6d565b82611c2e565b610baa576040517f08c379a0000000000000000000000000000000000000000000000000000000008152600401610ba1906134ba565b60405180910390fd5b610bb5838383611d0c565b505050565b6000600d60008373ffffffffffffffffffffffffffffffffffffffff1673ffffffffffffffffffffffffffffffffffffffff168152602001908152602001600020549050919050565b600860009054906101000a900473ffffffffffffffffffffffffffffffffffffffff1673ffffffffffffffffffffffffffffffffffffffff163373ffffffffffffffffffffffffffffffffffffffff1614610c93576040517f08c379a0000000000000000000000000000000000000000000000000000000008152600401610c8a9061337a565b60405180910390fd5b600047905060008111610cdb576040517f08c379a0000000000000000000000000000000000000000000000000000000008152600401610cd2906133ba565b60405180910390fd5b60003373ffffffffffffffffffffffffffffffffffffffff1682604051610d01906130ec565b60006040518083038185875af1925050503d8060008114610d3e576040519150601f19603f3d011682016040523d82523d6000602084013e610d43565b606091505b5050905080610d87576040517f08c379a0000000000000000000000000000000000000000000000000000000008152600401610d7e9061349a565b60405180910390fd5b5050565b610da683838360405180602001604052806000815250611379565b505050565b600860009054906101000a900473ffffffffffffffffffffffffffffffffffffffff1673ffffffffffffffffffffffffffffffffffffffff163373ffffffffffffffffffffffffffffffffffffffff1614610e3b576040517f08c379a0000000000000000000000000000000000000000000000000000000008152600401610e32906134da565b60405180910390fd5b80600a600084815260200190815260200160002060006101000a81548160ff0219169083151502179055505050565b600a6020528060005260406000206000915054906101000a900460ff1681565b6000806002600084815260200190815260200160002060009054906101000a900473ffffffffffffffffffffffffffffffffffffffff169050600073ffffffffffffffffffffffffffffffffffffffff168173ffffffffffffffffffffffffffffffffffffffff161415610f33576040517f08c379a0000000000000000000000000000000000000000000000000000000008152600401610f2a9061335a565b60405180910390fd5b80915050919050565b60008073ffffffffffffffffffffffffffffffffffffffff168273ffffffffffffffffffffffffffffffffffffffff161415610fad576040517f08c379a0000000000000000000000000000000000000000000000000000000008152600401610fa49061333a565b60405180910390fd5b600360008373ffffffffffffffffffffffffffffffffffffffff1673ffffffffffffffffffffffffffffffffffffffff168152602001908152602001600020549050919050565b600860009054906101000a900473ffffffffffffffffffffffffffffffffffffffff1673ffffffffffffffffffffffffffffffffffffffff163373ffffffffffffffffffffffffffffffffffffffff161461104e57600080fd5b6000600b60008461ffff168152602001908152602001600020805461107290613769565b80601f016020809104026020016040519081016040528092919081815260200182805461109e90613769565b80156110eb5780601f106110c0576101008083540402835291602001916110eb565b820191906000526020600020905b8154815290600101906020018083116110ce57829003601f168201915b5050505050905080826040516020016111059291906130c8565b604051602081830303815290604052600b60008561ffff168152602001908152602001600020908051906020019061113e9291906127a8565b50505050565b60008060606111568461ffff16610e8a565b600c60008661ffff16815260200190815260200160002054600b60008761ffff16815260200190815260200160002080805461119190613769565b80601f01602080910402602001604051908101604052809291908181526020018280546111bd90613769565b801561120a5780601f106111df5761010080835404028352916020019161120a565b820191906000526020600020905b8154815290600101906020018083116111ed57829003601f168201915b505050505090509250925092509193909250565b600033905090565b600d6020528060005260406000206000915090505481565b60606001805461124d90613769565b80601f016020809104026020016040519081016040528092919081815260200182805461127990613769565b80156112c65780601f1061129b576101008083540402835291602001916112c6565b820191906000526020600020905b8154815290600101906020018083116112a957829003601f168201915b5050505050905090565b60006112dc6007611f68565b60006112e86007611af3565b90506000600a600083815260200190815260200160002060006101000a81548160ff021916908315150217905550600954600c60008381526020019081526020016000208190555061135c600860009054906101000a900473ffffffffffffffffffffffffffffffffffffffff1682611f7e565b8091505090565b61137561136e611b6d565b8383611f9c565b5050565b61138a611384611b6d565b83611c2e565b6113c9576040517f08c379a00000000000000000000000000000000000000000000000000000000081526004016113c0906134ba565b60405180910390fd5b6113d584848484612109565b50505050565b6113e482610e8a565b73ffffffffffffffffffffffffffffffffffffffff163373ffffffffffffffffffffffffffffffffffffffff1614611451576040517f08c379a00000000000000000000000000000000000000000000000000000000081526004016114489061347a565b60405180910390fd5b60008111611494576040517f08c379a000000000000000000000000000000000000000000000000000000000815260040161148b9061321a565b60405180910390fd5b80600c6000848152602001908152602001600020819055505050565b60606114bb82611b01565b6114fa576040517f08c379a00000000000000000000000000000000000000000000000000000000081526004016114f1906133da565b60405180910390fd5b600060066000848152602001908152602001600020805461151a90613769565b80601f016020809104026020016040519081016040528092919081815260200182805461154690613769565b80156115935780601f1061156857610100808354040283529160200191611593565b820191906000526020600020905b81548152906001019060200180831161157657829003601f168201915b5050505050905060006115a4612165565b90506000815114156115ba5781925050506115fd565b6000825111156115ef5780826040516020016115d79291906130c8565b604051602081830303815290604052925050506115fd565b6115f88461217c565b925050505b919050565b61160b81610e8a565b73ffffffffffffffffffffffffffffffffffffffff163373ffffffffffffffffffffffffffffffffffffffff1614611678576040517f08c379a000000000000000000000000000000000000000000000000000000000815260040161166f9061347a565b60405180910390fd5b6000600c60008381526020019081526020016000208190555050565b6000600c6000838152602001908152602001600020549050600081116116ef576040517f08c379a00000000000000000000000000000000000000000000000000000000081526004016116e69061325a565b60405180910390fd5b600954816116fd91906135ea565b34101561173f576040517f08c379a00000000000000000000000000000000000000000000000000000000081526004016117369061327a565b60405180910390fd5b600061174a83610e8a565b90506000600c6000858152602001908152602001600020819055506009546006346117759190613640565b10156117eb57600860009054906101000a900473ffffffffffffffffffffffffffffffffffffffff1673ffffffffffffffffffffffffffffffffffffffff166108fc6009549081150290604051600060405180830381858888f193505050501580156117e5573d6000803e3d6000fd5b50611861565b600860009054906101000a900473ffffffffffffffffffffffffffffffffffffffff1673ffffffffffffffffffffffffffffffffffffffff166108fc6006346118349190613640565b9081150290604051600060405180830381858888f1935050505015801561185f573d6000803e3d6000fd5b505b8073ffffffffffffffffffffffffffffffffffffffff166108fc6006346118889190613640565b346118939190613671565b9081150290604051600060405180830381858888f193505050501580156118be573d6000803e3d6000fd5b506118ca813385611d0c565b7f608f6ac9327c2bf4d3c77adf447d2c448ba7b0971e0aaa9aa03f7ac29d874a448133346040516118fd9392919061311c565b60405180910390a1505050565b6060600b60008361ffff168152602001908152602001600020805461192e90613769565b80601f016020809104026020016040519081016040528092919081815260200182805461195a90613769565b80156119a75780601f1061197c576101008083540402835291602001916119a7565b820191906000526020600020905b81548152906001019060200180831161198a57829003601f168201915b50505050509050919050565b6000600954600c6000848152602001908152602001600020546119d691906135ea565b9050919050565b6000600560008473ffffffffffffffffffffffffffffffffffffffff1673ffffffffffffffffffffffffffffffffffffffff16815260200190815260200160002060008373ffffffffffffffffffffffffffffffffffffffff1673ffffffffffffffffffffffffffffffffffffffff16815260200190815260200160002060009054906101000a900460ff16905092915050565b600c6020528060005260406000206000915090505481565b60007f01ffc9a7000000000000000000000000000000000000000000000000000000007bffffffffffffffffffffffffffffffffffffffffffffffffffffffff1916827bffffffffffffffffffffffffffffffffffffffffffffffffffffffff1916149050919050565b600081600001549050919050565b60008073ffffffffffffffffffffffffffffffffffffffff166002600084815260200190815260200160002060009054906101000a900473ffffffffffffffffffffffffffffffffffffffff1673ffffffffffffffffffffffffffffffffffffffff1614159050919050565b600033905090565b816004600083815260200190815260200160002060006101000a81548173ffffffffffffffffffffffffffffffffffffffff021916908373ffffffffffffffffffffffffffffffffffffffff160217905550808273ffffffffffffffffffffffffffffffffffffffff16611be883610e8a565b73ffffffffffffffffffffffffffffffffffffffff167f8c5be1e5ebec7d5bd14f71427d1e84f3dd0314c0f7b2291e5b200ac8c7c3b92560405160405180910390a45050565b6000611c3982611b01565b611c78576040517f08c379a0000000000000000000000000000000000000000000000000000000008152600401611c6f906132fa565b60405180910390fd5b6000611c8383610e8a565b90508073ffffffffffffffffffffffffffffffffffffffff168473ffffffffffffffffffffffffffffffffffffffff161480611cf257508373ffffffffffffffffffffffffffffffffffffffff16611cda8461091d565b73ffffffffffffffffffffffffffffffffffffffff16145b80611d035750611d0281856119dd565b5b91505092915050565b8273ffffffffffffffffffffffffffffffffffffffff16611d2c82610e8a565b73ffffffffffffffffffffffffffffffffffffffff1614611d82576040517f08c379a0000000000000000000000000000000000000000000000000000000008152600401611d799061341a565b60405180910390fd5b600073ffffffffffffffffffffffffffffffffffffffff168273ffffffffffffffffffffffffffffffffffffffff161415611df2576040517f08c379a0000000000000000000000000000000000000000000000000000000008152600401611de9906132ba565b60405180910390fd5b611dfd838383612223565b611e08600082611b75565b6001600360008573ffffffffffffffffffffffffffffffffffffffff1673ffffffffffffffffffffffffffffffffffffffff1681526020019081526020016000206000828254611e589190613671565b925050819055506001600360008473ffffffffffffffffffffffffffffffffffffffff1673ffffffffffffffffffffffffffffffffffffffff1681526020019081526020016000206000828254611eaf91906135ea565b92505081905550816002600083815260200190815260200160002060006101000a81548173ffffffffffffffffffffffffffffffffffffffff021916908373ffffffffffffffffffffffffffffffffffffffff160217905550808273ffffffffffffffffffffffffffffffffffffffff168473ffffffffffffffffffffffffffffffffffffffff167fddf252ad1be2c89b69c2b068fc378daa952ba7f163c4a11628f55a4df523b3ef60405160405180910390a4505050565b6001816000016000828254019250508190555050565b611f98828260405180602001604052806000815250612228565b5050565b8173ffffffffffffffffffffffffffffffffffffffff168373ffffffffffffffffffffffffffffffffffffffff16141561200b576040517f08c379a0000000000000000000000000000000000000000000000000000000008152600401612002906132da565b60405180910390fd5b80600560008573ffffffffffffffffffffffffffffffffffffffff1673ffffffffffffffffffffffffffffffffffffffff16815260200190815260200160002060008473ffffffffffffffffffffffffffffffffffffffff1673ffffffffffffffffffffffffffffffffffffffff16815260200190815260200160002060006101000a81548160ff0219169083151502179055508173ffffffffffffffffffffffffffffffffffffffff168373ffffffffffffffffffffffffffffffffffffffff167f17307eab39ab6107e8899845ad3d59bd9653f200f220920489ca2b5937696c31836040516120fc91906131dd565b60405180910390a3505050565b612114848484611d0c565b61212084848484612283565b61215f576040517f08c379a00000000000000000000000000000000000000000000000000000000081526004016121569061323a565b60405180910390fd5b50505050565b606060405180602001604052806000815250905090565b606061218782611b01565b6121c6576040517f08c379a00000000000000000000000000000000000000000000000000000000081526004016121bd9061343a565b60405180910390fd5b60006121d0612165565b905060008151116121f0576040518060200160405280600081525061221b565b806121fa8461241a565b60405160200161220b9291906130c8565b6040516020818303038152906040525b915050919050565b505050565b61223283836125c7565b61223f6000848484612283565b61227e576040517f08c379a00000000000000000000000000000000000000000000000000000000081526004016122759061323a565b60405180910390fd5b505050565b60006122a48473ffffffffffffffffffffffffffffffffffffffff16612795565b1561240d578373ffffffffffffffffffffffffffffffffffffffff1663150b7a026122cd611b6d565b8786866040518563ffffffff1660e01b81526004016122ef9493929190613153565b602060405180830381600087803b15801561230957600080fd5b505af192505050801561233a57506040513d601f19601f820116820180604052508101906123379190612b69565b60015b6123bd573d806000811461236a576040519150601f19603f3d011682016040523d82523d6000602084013e61236f565b606091505b506000815114156123b5576040517f08c379a00000000000000000000000000000000000000000000000000000000081526004016123ac9061323a565b60405180910390fd5b805181602001fd5b63150b7a0260e01b7bffffffffffffffffffffffffffffffffffffffffffffffffffffffff1916817bffffffffffffffffffffffffffffffffffffffffffffffffffffffff191614915050612412565b600190505b949350505050565b60606000821415612462576040518060400160405280600181526020017f300000000000000000000000000000000000000000000000000000000000000081525090506125c2565b600082905060005b6000821461249457808061247d906137cc565b915050600a8261248d9190613640565b915061246a565b60008167ffffffffffffffff8111156124d6577f4e487b7100000000000000000000000000000000000000000000000000000000600052604160045260246000fd5b6040519080825280601f01601f1916602001820160405280156125085781602001600182028036833780820191505090505b5090505b600085146125bb576001826125219190613671565b9150600a856125309190613815565b603061253c91906135ea565b60f81b818381518110612578577f4e487b7100000000000000000000000000000000000000000000000000000000600052603260045260246000fd5b60200101907effffffffffffffffffffffffffffffffffffffffffffffffffffffffffffff1916908160001a905350600a856125b49190613640565b945061250c565b8093505050505b919050565b600073ffffffffffffffffffffffffffffffffffffffff168273ffffffffffffffffffffffffffffffffffffffff161415612637576040517f08c379a000000000000000000000000000000000000000000000000000000000815260040161262e9061339a565b60405180910390fd5b61264081611b01565b15612680576040517f08c379a00000000000000000000000000000000000000000000000000000000081526004016126779061329a565b60405180910390fd5b61268c60008383612223565b6001600360008473ffffffffffffffffffffffffffffffffffffffff1673ffffffffffffffffffffffffffffffffffffffff16815260200190815260200160002060008282546126dc91906135ea565b92505081905550816002600083815260200190815260200160002060006101000a81548173ffffffffffffffffffffffffffffffffffffffff021916908373ffffffffffffffffffffffffffffffffffffffff160217905550808273ffffffffffffffffffffffffffffffffffffffff16600073ffffffffffffffffffffffffffffffffffffffff167fddf252ad1be2c89b69c2b068fc378daa952ba7f163c4a11628f55a4df523b3ef60405160405180910390a45050565b600080823b905060008111915050919050565b8280546127b490613769565b90600052602060002090601f0160209004810192826127d6576000855561281d565b82601f106127ef57805160ff191683800117855561281d565b8280016001018555821561281d579182015b8281111561281c578251825591602001919060010190612801565b5b50905061282a919061282e565b5090565b5b8082111561284757600081600090555060010161282f565b5090565b600061285e6128598461353a565b613515565b90508281526020810184848401111561287657600080fd5b612881848285613727565b509392505050565b600061289c6128978461356b565b613515565b9050828152602081018484840111156128b457600080fd5b6128bf848285613727565b509392505050565b6000813590506128d681613eb3565b92915050565b6000813590506128eb81613eca565b92915050565b60008135905061290081613ee1565b92915050565b60008151905061291581613ee1565b92915050565b600082601f83011261292c57600080fd5b813561293c84826020860161284b565b91505092915050565b600082601f83011261295657600080fd5b8135612966848260208601612889565b91505092915050565b60008135905061297e81613ef8565b92915050565b60008135905061299381613f0f565b92915050565b6000602082840312156129ab57600080fd5b60006129b9848285016128c7565b91505092915050565b600080604083850312156129d557600080fd5b60006129e3858286016128c7565b92505060206129f4858286016128c7565b9150509250929050565b600080600060608486031215612a1357600080fd5b6000612a21868287016128c7565b9350506020612a32868287016128c7565b9250506040612a4386828701612984565b9150509250925092565b60008060008060808587031215612a6357600080fd5b6000612a71878288016128c7565b9450506020612a82878288016128c7565b9350506040612a9387828801612984565b925050606085013567ffffffffffffffff811115612ab057600080fd5b612abc8782880161291b565b91505092959194509250565b60008060408385031215612adb57600080fd5b6000612ae9858286016128c7565b9250506020612afa858286016128dc565b9150509250929050565b60008060408385031215612b1757600080fd5b6000612b25858286016128c7565b9250506020612b3685828601612984565b9150509250929050565b600060208284031215612b5257600080fd5b6000612b60848285016128f1565b91505092915050565b600060208284031215612b7b57600080fd5b6000612b8984828501612906565b91505092915050565b600060208284031215612ba457600080fd5b6000612bb28482850161296f565b91505092915050565b60008060408385031215612bce57600080fd5b6000612bdc8582860161296f565b925050602083013567ffffffffffffffff811115612bf957600080fd5b612c0585828601612945565b9150509250929050565b600060208284031215612c2157600080fd5b6000612c2f84828501612984565b91505092915050565b60008060408385031215612c4b57600080fd5b6000612c5985828601612984565b9250506020612c6a858286016128dc565b9150509250929050565b60008060408385031215612c8757600080fd5b6000612c9585828601612984565b9250506020612ca685828601612984565b9150509250929050565b612cb9816136a5565b82525050565b612cc8816136b7565b82525050565b6000612cd98261359c565b612ce381856135b2565b9350612cf3818560208601613736565b612cfc81613902565b840191505092915050565b6000612d12826135a7565b612d1c81856135ce565b9350612d2c818560208601613736565b612d3581613902565b840191505092915050565b6000612d4b826135a7565b612d5581856135df565b9350612d65818560208601613736565b80840191505092915050565b6000612d7e601f836135ce565b9150612d8982613913565b602082019050919050565b6000612da16032836135ce565b9150612dac8261393c565b604082019050919050565b6000612dc4601a836135ce565b9150612dcf8261398b565b602082019050919050565b6000612de7600f836135ce565b9150612df2826139b4565b602082019050919050565b6000612e0a601c836135ce565b9150612e15826139dd565b602082019050919050565b6000612e2d6024836135ce565b9150612e3882613a06565b604082019050919050565b6000612e506019836135ce565b9150612e5b82613a55565b602082019050919050565b6000612e73602c836135ce565b9150612e7e82613a7e565b604082019050919050565b6000612e966038836135ce565b9150612ea182613acd565b604082019050919050565b6000612eb9602a836135ce565b9150612ec482613b1c565b604082019050919050565b6000612edc6029836135ce565b9150612ee782613b6b565b604082019050919050565b6000612eff601d836135ce565b9150612f0a82613bba565b602082019050919050565b6000612f226020836135ce565b9150612f2d82613be3565b602082019050919050565b6000612f456019836135ce565b9150612f5082613c0c565b602082019050919050565b6000612f686031836135ce565b9150612f7382613c35565b604082019050919050565b6000612f8b602c836135ce565b9150612f9682613c84565b604082019050919050565b6000612fae6029836135ce565b9150612fb982613cd3565b604082019050919050565b6000612fd1602f836135ce565b9150612fdc82613d22565b604082019050919050565b6000612ff46021836135ce565b9150612fff82613d71565b604082019050919050565b60006130176017836135ce565b915061302282613dc0565b602082019050919050565b600061303a6000836135c3565b915061304582613de9565b600082019050919050565b600061305d6010836135ce565b915061306882613dec565b602082019050919050565b60006130806031836135ce565b915061308b82613e15565b604082019050919050565b60006130a3602c836135ce565b91506130ae82613e64565b604082019050919050565b6130c28161371d565b82525050565b60006130d48285612d40565b91506130e08284612d40565b91508190509392505050565b60006130f78261302d565b9150819050919050565b60006020820190506131166000830184612cb0565b92915050565b60006060820190506131316000830186612cb0565b61313e6020830185612cb0565b61314b60408301846130b9565b949350505050565b60006080820190506131686000830187612cb0565b6131756020830186612cb0565b61318260408301856130b9565b81810360608301526131948184612cce565b905095945050505050565b60006060820190506131b46000830186612cb0565b6131c160208301856130b9565b81810360408301526131d38184612d07565b9050949350505050565b60006020820190506131f26000830184612cbf565b92915050565b600060208201905081810360008301526132128184612d07565b905092915050565b6000602082019050818103600083015261323381612d71565b9050919050565b6000602082019050818103600083015261325381612d94565b9050919050565b6000602082019050818103600083015261327381612db7565b9050919050565b6000602082019050818103600083015261329381612dda565b9050919050565b600060208201905081810360008301526132b381612dfd565b9050919050565b600060208201905081810360008301526132d381612e20565b9050919050565b600060208201905081810360008301526132f381612e43565b9050919050565b6000602082019050818103600083015261331381612e66565b9050919050565b6000602082019050818103600083015261333381612e89565b9050919050565b6000602082019050818103600083015261335381612eac565b9050919050565b6000602082019050818103600083015261337381612ecf565b9050919050565b6000602082019050818103600083015261339381612ef2565b9050919050565b600060208201905081810360008301526133b381612f15565b9050919050565b600060208201905081810360008301526133d381612f38565b9050919050565b600060208201905081810360008301526133f381612f5b565b9050919050565b6000602082019050818103600083015261341381612f7e565b9050919050565b6000602082019050818103600083015261343381612fa1565b9050919050565b6000602082019050818103600083015261345381612fc4565b9050919050565b6000602082019050818103600083015261347381612fe7565b9050919050565b600060208201905081810360008301526134938161300a565b9050919050565b600060208201905081810360008301526134b381613050565b9050919050565b600060208201905081810360008301526134d381613073565b9050919050565b600060208201905081810360008301526134f381613096565b9050919050565b600060208201905061350f60008301846130b9565b92915050565b600061351f613530565b905061352b828261379b565b919050565b6000604051905090565b600067ffffffffffffffff821115613555576135546138d3565b5b61355e82613902565b9050602081019050919050565b600067ffffffffffffffff821115613586576135856138d3565b5b61358f82613902565b9050602081019050919050565b600081519050919050565b600081519050919050565b600082825260208201905092915050565b600081905092915050565b600082825260208201905092915050565b600081905092915050565b60006135f58261371d565b91506136008361371d565b9250827fffffffffffffffffffffffffffffffffffffffffffffffffffffffffffffffff0382111561363557613634613846565b5b828201905092915050565b600061364b8261371d565b91506136568361371d565b92508261366657613665613875565b5b828204905092915050565b600061367c8261371d565b91506136878361371d565b92508282101561369a57613699613846565b5b828203905092915050565b60006136b0826136fd565b9050919050565b60008115159050919050565b60007fffffffff0000000000000000000000000000000000000000000000000000000082169050919050565b600061ffff82169050919050565b600073ffffffffffffffffffffffffffffffffffffffff82169050919050565b6000819050919050565b82818337600083830152505050565b60005b83811015613754578082015181840152602081019050613739565b83811115613763576000848401525b50505050565b6000600282049050600182168061378157607f821691505b60208210811415613795576137946138a4565b5b50919050565b6137a482613902565b810181811067ffffffffffffffff821117156137c3576137c26138d3565b5b80604052505050565b60006137d78261371d565b91507fffffffffffffffffffffffffffffffffffffffffffffffffffffffffffffffff82141561380a57613809613846565b5b600182019050919050565b60006138208261371d565b915061382b8361371d565b92508261383b5761383a613875565b5b828206905092915050565b7f4e487b7100000000000000000000000000000000000000000000000000000000600052601160045260246000fd5b7f4e487b7100000000000000000000000000000000000000000000000000000000600052601260045260246000fd5b7f4e487b7100000000000000000000000000000000000000000000000000000000600052602260045260246000fd5b7f4e487b7100000000000000000000000000000000000000000000000000000000600052604160045260246000fd5b6000601f19601f8301169050919050565b7f5072696365206d7573742062652067726561746572207468616e207a65726f00600082015250565b7f4552433732313a207472616e7366657220746f206e6f6e20455243373231526560008201527f63656976657220696d706c656d656e7465720000000000000000000000000000602082015250565b7f5468697320746f6b656e206973206e6f7420666f722073616c65000000000000600082015250565b7f507269636520696e636f72726563740000000000000000000000000000000000600082015250565b7f4552433732313a20746f6b656e20616c7265616479206d696e74656400000000600082015250565b7f4552433732313a207472616e7366657220746f20746865207a65726f2061646460008201527f7265737300000000000000000000000000000000000000000000000000000000602082015250565b7f4552433732313a20617070726f766520746f2063616c6c657200000000000000600082015250565b7f4552433732313a206f70657261746f7220717565727920666f72206e6f6e657860008201527f697374656e7420746f6b656e0000000000000000000000000000000000000000602082015250565b7f4552433732313a20617070726f76652063616c6c6572206973206e6f74206f7760008201527f6e6572206e6f7220617070726f76656420666f7220616c6c0000000000000000602082015250565b7f4552433732313a2062616c616e636520717565727920666f7220746865207a6560008201527f726f206164647265737300000000000000000000000000000000000000000000602082015250565b7f4552433732313a206f776e657220717565727920666f72206e6f6e657869737460008201527f656e7420746f6b656e0000000000000000000000000000000000000000000000602082015250565b7f6f6e6c7920746865206172746973742063616e20776974686472617721000000600082015250565b7f4552433732313a206d696e7420746f20746865207a65726f2061646472657373600082015250565b7f4e6f206574686572206c65667420746f20776974686472617700000000000000600082015250565b7f45524337323155524953746f726167653a2055524920717565727920666f722060008201527f6e6f6e6578697374656e7420746f6b656e000000000000000000000000000000602082015250565b7f4552433732313a20617070726f76656420717565727920666f72206e6f6e657860008201527f697374656e7420746f6b656e0000000000000000000000000000000000000000602082015250565b7f4552433732313a207472616e73666572206f6620746f6b656e2074686174206960008201527f73206e6f74206f776e0000000000000000000000000000000000000000000000602082015250565b7f4552433732314d657461646174613a2055524920717565727920666f72206e6f60008201527f6e6578697374656e7420746f6b656e0000000000000000000000000000000000602082015250565b7f4552433732313a20617070726f76616c20746f2063757272656e74206f776e6560008201527f7200000000000000000000000000000000000000000000000000000000000000602082015250565b7f4e6f74206f776e6572206f66207468697320746f6b656e000000000000000000600082015250565b50565b7f5472616e73666572206661696c65642e00000000000000000000000000000000600082015250565b7f4552433732313a207472616e736665722063616c6c6572206973206e6f74206f60008201527f776e6572206e6f7220617070726f766564000000000000000000000000000000602082015250565b7f6f6e6c7920746865206172746973742063616e206368616e676520746865206560008201527f78636c7564652076616c75650000000000000000000000000000000000000000602082015250565b613ebc816136a5565b8114613ec757600080fd5b50565b613ed3816136b7565b8114613ede57600080fd5b50565b613eea816136c3565b8114613ef557600080fd5b50565b613f01816136ef565b8114613f0c57600080fd5b50565b613f188161371d565b8114613f2357600080fd5b5056fea26469706673582212208a3e6eef03903c2873a5c212e8e106d97a2edab93d4e61203f9d0a8843ef56ae64736f6c63430008040033",
  "linkReferences": {},
  "deployedLinkReferences": {}
}